:1000000000000220F5610000416200004162000032
:1000100000000000000000000000000000000000E0
:10002000000000000000000000000000416200002D
:10003000000000000000000041620000A530000048
:10004000C52F0000B12F0000A9300000F5300000DE
:10005000593100005B31000045310000C12D000026
:10006000F9300000FD2F00007D2D0000E930000078
:1000700041310000F73000000000000000000000E7
:100080000000000000000000000000000000000070
:100090000000000000000000000000000000000060
:1000A0000000000000000000000000000000000050
:1000B0000000000000000000000000000000000040
:1000C00002B4714649084900095C49008E4402BCEB
:1000D0007047C046002243088B4274D303098B4209
:1000E0005FD3030A8B4244D3030B8B4228D3030C08
:1000F0008B420DD3FF22090212BA030C8B4202D3AA
:100100001212090265D0030B8B4219D300E0090AD1
:10011000C30B8B4201D3CB03C01A5241830B8B42DA
:1001200001D38B03C01A5241430B8B4201D34B03C3
:10013000C01A5241030B8B4201D30B03C01A524128
:10014000C30A8B4201D3CB02C01A5241830A8B42AD
:1001500001D38B02C01A5241430A8B4201D34B0296
:10016000C01A5241030A8B4201D30B02C01A5241FA
:10017000CDD2C3098B4201D3CB01C01A52418309AE
:100180008B4201D38B01C01A524143098B4201D3E8
:100190004B01C01A524103098B4201D30B01C01A13
:1001A0005241C3088B4201D3CB00C01A524183088D
:1001B0008B4201D38B00C01A524143088B4201D3BA
:1001C0004B00C01A5241411A00D20146524110461A
:1001D0007047FFE701B5002000F0F0F802BDC0460F
:1001E0000029F7D076E7704703460B437FD40022FF
:1001F00043088B4274D303098B425FD3030A8B42BB
:1002000044D3030B8B4228D3030C8B420DD3FF2224
:10021000090212BA030C8B4202D31212090265D0F2
:10022000030B8B4219D300E0090AC30B8B4201D3A5
:10023000CB03C01A5241830B8B4201D38B03C01AEC
:100240005241430B8B4201D34B03C01A5241030B63
:100250008B4201D30B03C01A5241C30A8B4201D314
:10026000CB02C01A5241830A8B4201D38B02C01ABF
:100270005241430A8B4201D34B02C01A5241030A36
:100280008B4201D30B02C01A5241CDD2C3098B421B
:1002900001D3CB01C01A524183098B4201D38B0198
:1002A000C01A524143098B4201D34B01C01A52413B
:1002B00003098B4201D30B01C01A5241C3088B4280
:1002C00001D3CB00C01A524183088B4201D38B006B
:1002D000C01A524143088B4201D34B00C01A52410D
:1002E000411A00D201465241104670475DE0CA0FE4
:1002F00000D04942031000D34042534000229C46A4
:1003000003098B422DD3030A8B4212D3FC228901AD
:1003100012BA030A8B420CD3890192118B4208D383
:10032000890192118B4204D389013AD0921100E0E5
:100330008909C3098B4201D3CB01C01A52418309F9
:100340008B4201D38B01C01A524143098B4201D326
:100350004B01C01A524103098B4201D30B01C01A51
:100360005241C3088B4201D3CB00C01A52418308CB
:100370008B4201D38B00C01A5241D9D243088B4221
:1003800001D34B00C01A5241411A00D201466346C4
:1003900052415B10104601D34042002B00D5494228
:1003A000704763465B1000D3404201B5002000F067
:1003B00005F802BD0029F8D016E770477047C0461F
:1003C0009E2110B5C905041C00F0F4FC002803D1DF
:1003D000201C00F015FC10BD9E21201CC90500F05A
:1003E0004BFA00F00DFC80231B069C466044F2E7AC
:1003F000F8B557464E464546DE464402E0B546004F
:100400008846640A360EC70F002E63D0FF2E24D014
:100410008023E400DB041C43002399469B467F3E77
:10042000434642465D02D20F5B006D0A1B0E9046AA
:10043000924665D0FF2B55D080220021ED00D204DA
:100440007F3B1543F61A43464A467B400F2A00D9A4
:100450008DE06D48920082589746002C54D10823B5
:100460009946063BFF269B46DAE7002553460229BC
:100470001BD0032900D1BFE0012928D030007F30F4
:10048000002820DD6A0704D00F222A40042A00D069
:1004900004352A0103D530005C4A80301540FE281F
:1004A00003DCAC01640AC2B201E0FF220024640252
:1004B000D205600ADB07104318433CBC90469946BE
:1004C000A246AB46F8BD0122101A1B287CDD002293
:1004D0000024ECE7002C1DD104239946033B0026A1
:1004E0009B469DE7FF3E002D20D1022143464A4610
:1004F0007B400A430F2AD8D8454892008258974635
:10050000002D19D10121F1E70C239946093BFF2663
:100510009B4685E7200000F057FC7626431F9C4051
:1005200000237642361A99469B4679E74A460323CA
:100530001A439146032186E7280000F045FC431F3B
:1005400036189D40763600217DE780240023E403A1
:10055000FF22ACE700258023DB031C4228D01D428C
:1005600026D12B435C02640A4346FF229FE76201C7
:100570006C01A24224D21B210025013E012710005C
:100580006D005200002801DB944201D8121B3D434C
:1005900001390029F3D11400621E944125436DE70F
:1005A000BA46594625005346022900D061E77CE748
:1005B0008023DB031C436402640A3B00FF2276E7CE
:1005C000121B1A210125D9E79E362A00B5402C00BE
:1005D000C240651EAC411443620704D00F22224082
:1005E000042A00D00434620103D4A401640A002266
:1005F0005DE7012200245AE78024E4032C436402CF
:10060000640AFF2253E7C046986D0000FFFFFFF722
:10061000D86D0000F0B54E4657464546DE46E0B57B
:1006200043025B0A450083B00F1C99462D0EC60F8E
:10063000002D57D0FF2D24D08020DB00C0041843AC
:10064000002381469A469B467F3D7C027A00FB0F41
:10065000640A120E984623D0FF2A4BD0E300802470
:100660000020E4047F3A1C43AD186B1C47460193FD
:10067000534677403A000F2B48D87D499B00CB5812
:100680009F46002B00D085E008339A46063B9B46E8
:100690007C027A00FB0FFF25640A120E9846DBD11C
:1006A000002C00D090E0524601231A4392460120CC
:1006B000DBE74C4658461700022824D0032800D117
:1006C000CFE00022002301284DD15802D205400A74
:1006D000FF071043384303B03CBC90469946A246FE
:1006E000AB46F0BD002B5BD104239A46033B0025AB
:1006F0009B46AAE7FF35002C60D1524602231A43DD
:1007000092460220B1E7FF220023DEE74B461B0C96
:100710009C464B462604360C180461463300220CD6
:100720006446000C43434E435043544380191A0C13
:100730001218964203D9802149028C4664441B0456
:100740001B0C1004C01883015E1EB341800E1843B9
:10075000130C1B199B0103431C00230179D50123B2
:1007600062081C401443019A7F32002A4DDD630762
:1007700004D00F232340042B00D00434230103D5DD
:100780003C4B019A1C408032FE2ABCDCA3015B0A70
:10079000D2B29AE70C239A46093BFF259B4654E7C1
:1007A000180000F011FB4A46431F76259A400023AB
:1007B0006D4291462D1A9A469B4646E752460323C0
:1007C0001A439246032050E7200000F0FDFA431F31
:1007D0002D1A9C40763D002047E780230027DB034D
:1007E000FF2272E7424666E74C463200584662E70F
:1007F00080234A46DB031A4222D01C4220D12343E5
:100800005B025B0A4746FF225FE701239A1A1B2A15
:1008100021DC23000199D3409E318C401A00230033
:100820005C1EA34113435A0704D00F221A40042A26
:1008300000D004335A0111D49B015B0A002244E723
:1008400080234A46DB0313435B025B0A3700FF2227
:100850003BE7019587E70022002336E701220023CA
:1008600033E78023DB0323435B025B0AFF222CE791
:10087000186E0000FFFFFFF7F8B54746CE4644006C
:10088000C20F80B547024802400A844666464800C7
:100890007F0A240EF60025009046FB00000EC90FCB
:1008A000B146FF2800D185E001267140261A914209
:1008B00057D0002E43DD002800D07FE049460029B4
:1008C00000D1AAE0013E002E00D0F7E05B1A5A01E9
:1008D00000D48BE09B019C09200000F075FA0538DC
:1008E0008440854200DDD3E0451B230020200135F4
:1008F000EB40451BAC40621E944123430724002576
:100900001C40012241460A40002C04D00F2119400E
:10091000042900D00433590100D480E00135ECB241
:10092000FF2D00D0A3E0FF2400235B02E405580A5A
:10093000D207204310430CBC90469946F8BD002EC8
:1009400074D1601CC0B2012800DCA7E04A469C1AA2
:10095000620100D5B6E0002CBED1002200240023A5
:10096000E3E7002E00DC85E0002846D0FF2C49D0CC
:1009700080224846D2041043814601221B2E09DC06
:1009800020204C46801B84404A462000F240441EF2
:10099000A04102439B185A0128D50135FF2D00D1F3
:1009A000A8E00122072494491A405B080B40134336
:1009B0001C40A6E7002E00D078E775E7FF2C54D046
:1009C00080224946D2041143894601221B2E09DCAC
:1009D00020214846891B88404A460100F240481EB3
:1009E00081410A439B1A5A0100D573E7012241460F
:1009F0000A40590700D089E711E04846002858D13D
:100A0000FF2C0CD1DB08002B00D18CE78020C00329
:100A100003435B025B0AFF2487E7FF2C25D0DB083A
:100A2000FF2DF0D05B025B0AECB27EE7002C4DD0CC
:100A3000FF2818D08024E404724223431B2A00DDDF
:100A4000C4E01C002025D440AA1A93405A1E9341AA
:100A500023434A460500D31A884638E7721CF8D06B
:100A6000F243FF28EAD10A004B46FF25D7E79B0156
:100A70005B0A5AE7002E41D1651CE9B2012945DD28
:100A8000FF2D00D14FE707244B445B081C4038E79B
:100A900007225A4B2D1A2340144032E7002C1DD157
:100AA000002B7AD14B46002B00D191E00A000025A3
:100AB000B5E7013E002E19D14B446CE7FF2C84D1E1
:100AC000FF25ACE74A468846D41A05E7002BC5D176
:100AD0000A00FF28C8D005004B46A0E7002B49D1EB
:100AE0004B46002B77D00A00FF2598E7FF2C00D05B
:100AF00043E787E70A00FF24002316E7002C15D1FF
:100B0000002B57D1FF28E6D14B467BE7002C20D1A4
:100B1000002B57D04946002953D04B445A0168D581
:100B20000724364A1C4001251340EAE6FF28EBD093
:100B30008022D204764213431B2E53DC2025AD1BAA
:100B40001A00AB40F2405C1EA34113434B44050026
:100B500021E7002BD8D04946002900D152E7802157
:100B6000C9030F4200D14DE76046084200D049E773
:100B70004B4647E74846FF25002800D14FE7802233
:100B8000D203174204D06046104201D14B4688463A
:100B900001224146FF250A4041E7484600281FD070
:100BA0001A1A500120D54A460724D31A1C408846F9
:100BB0000025A6E6741CC9D0F643FF28BCD14B46DD
:100BC00020E799464B460025DB082BE7012340E749
:100BD00000220023A9E680230022DB03FF24A4E6F1
:100BE00000251CE70123B1E7002AF1D013000025FE
:100BF000FCE60025FAE6C046FFFFFF7DFFFFFFFB96
:100C000041024200C30F490A120E00207E2A0DD96C
:100C10009D2A0CD8802000040143952A0ADC9620E6
:100C2000821AD1404842002B00D108007047034A85
:100C30009818FBE7963A9140F4E7C046FFFFFF7F24
:100C400070B500283DD0C317C5185D40C40F2800FB
:100C500000F0BAF89E22121A962A07DCD2B20828AF
:100C600033DD083885406802400A23E0992A0BDD0D
:100C7000052329001B1AD94003001B339D402B007C
:100C80005D1EAB4119430D00052801DD431F9D404A
:100C90002B000F490B406E0709D00F263540042D5D
:100CA00005D004335D0102D59F220B40121A9B012F
:100CB000580AD2B24002D205400AE407104320434A
:100CC00070BD002400220020F4E76802400AF1E72A
:100CD000FFFFFFFB70B5041E34D000F075F89E22B4
:100CE000121A962A07DCD2B208282EDD0838844072
:100CF0006002400A21E0992A09DD030021001B332C
:100D000099404B1E994105231B1ADC400C430528D2
:100D100001DD431F9C4023000D490B40650709D0AE
:100D20000F252C40042C05D004335C0102D59F22F2
:100D30000B40121A9B01580AD2B24002D205400A57
:100D4000104370BD00220020F7E76002400AF4E77C
:100D5000FFFFFFFB8446081C6146FFE71FB500F05C
:100D6000C7F8002801D40021C8421FBD10B500F00B
:100D700049F84042013010BD10B500F0B9F8002824
:100D800001DB002010BD012010BDC04610B500F0F1
:100D9000AFF8002801DD002010BD012010BDC046C5
:100DA00010B500F057F8002801DC002010BD01202C
:100DB00010BDC04610B500F04DF8002801DA002043
:100DC00010BD012010BDC0461C2101231B04984208
:100DD00001D3000C10391B0A984201D3000A0839CC
:100DE0001B09984201D30009043902A2105C401883
:100DF0007047C04604030202010101010000000027
:100E00000000000070B542004E024C0045026D0A21
:100E1000120EC30F760A240EC90FFF2A0FD0FF2C23
:100E200011D00120A24200D070BDB542FCD18B424E
:100E30000DD0002AF8D12800451EA841F4E7012072
:100E4000002DF1D1EBE70120002EEDD1E9E70020E4
:100E5000EAE7C04670B54A004E02450244006D0AFA
:100E6000240EC30F760A120EC90FFF2C15D0FF2ACD
:100E70000ED0002C15D1002A01D1002E1CD0002D3F
:100E800014D08B4227D00220013B1840013870BD9E
:100E9000002EEED002204042F9E7002DFAD1FF2AC1
:100EA0000ED0002A0ED1002EEDD00BE00123013927
:100EB000994308000130EAE70020002DE7D0E2E77F
:100EC000002EE7D18B42DED1944205DD0221581E6F
:100ED00008400138DBE70024A24204DCB542D2D846
:100EE0000020B542D3D2581E012398430130CEE7EB
:100EF00030B5420044024D02C30F4800640A120E8E
:100F00006D0A000EC90FFF2A12D0FF280CD0002A4C
:100F100012D1002819D1002D17D1002C2BD002207E
:100F2000013B1840013826E0002DF0D0022022E0DD
:100F3000002CFBD1FF281FD000281FD1002D1DD170
:100F40000220013B1840013815E0002C0ED08B42E6
:100F5000E5D10022904204DCAC42E0D80020AC4253
:100F600009D2581E01239843013004E001230139BE
:100F700099430800013030BD002DD7D18B42CED12E
:100F80008242E7DD0221581E08400138F3E7C046DF
:100F90000023C25C0133002AFBD1581E70470000B9
:100FA000F8B5274CA3690133A361667DF6B2002E24
:100FB0003FD10127637D234D0133DBB26375224BA3
:100FC000AE761878A771E87601F044F99622962358
:100FD0001E491F480E601F4E5242028033801E4E33
:100FE00032801E4E33801E4E32801E4A138069337B
:100FF0000B60390003F0B2F92179AA7E1A4BB9428D
:1010000018D11A49895C597019498A5C0A21AA7653
:1010100003222275174A5A609A60D9602100002382
:101020002C310B70236363632362E261124A6262B4
:10103000A362F8BD1149895C59701149E5E7C046C2
:10104000801B002078010020240000204007014080
:101050000007014004070140080701400C07014058
:101060001007014014070140601B002030000020E1
:101070003C000020DC050000282300002A0000209E
:101080003600002070B5464C2200236A2C32013312
:101090002362A36A0133A3621378012B11D1236B5E
:1010A00001332363216B636B994209D300232363CC
:1010B0001370636B3B4A2361616B53685B18536029
:1010C00070BD80222369520001332361364B354EB7
:1010D0001B6830001340E360E3681B0ADBB2337027
:1010E00005F014FE226973689A42E9D32F4D304A05
:1010F000AB7ED05CE87601F0ADF82279AB7E012AB8
:1011000040D12C4AD25C72702B4AD35C2B49AB760F
:10111000236A0A78E36100232362052A00D90B7051
:101120000B78E0691A000E329200A21890601A0043
:101130001832E06992000133A21850600B70EB7E08
:10114000012B24D108221E49C8684240CA60A26A05
:1011500062620022A262220094321370A26B194BC9
:101160009A4202D8A36B0133A3632369012263630C
:10117000636B9B08636323002C331A700023236383
:1011800023619DE7104AD25C7270104ABDE7062BBE
:10119000EBD10B4A0233D1684B40D360E5E7C04640
:1011A000801B0020601B00201402014078010020F9
:1011B00024000020300000203C000020D800002047
:1011C00040080140CF0700002A0000203600002020
:1011D000F8B5724B724C1E78F6B2002E52D1270031
:1011E0008022A0373B68520001333B606D4B6E4D4F
:1011F0001B6828001340E360E3681B0ADBB22B7016
:1012000005F0A4FD22009F32297F1378994239D03E
:1012100023003968A43319601B686B6026612B7F3B
:10122000DBB2137022009E3213780133DBB21370ED
:101230001378042B09D9012358490B7021009B31E5
:101240000B7023009C331E70167022000023A03206
:101250001360AB616B6123009D331B78002B11D1B0
:10126000524E534AB37ED05CF07602F095FE22795E
:10127000B37E012A00D087E04E4AD25C6A704E4AA3
:10128000D35CB37621009D310B78012B66D1200011
:101290009B300778FFB2012F60D12300A4331A6876
:1012A000013A1A6022690132226122691B689A425E
:1012B00054D32300002505229A3305700D701D704C
:1012C0003E4B3A4E1A70032323756133A771236690
:1012D0003B4B374A5D611D833A4B1D605D603A4B65
:1012E0005D611D83394B1D605D60B37ED05CF0761F
:1012F00000F0B0FF4B224B23354936480D60364D88
:10130000524202802B80354D2A80354D2B80354D41
:101310002A80354A1380B4330B60390003F01EF87D
:101320002179214AB37E012933D12249C95C517008
:10133000214AD35C2200B37600239B321370220033
:101340009C321370A361226901216263626B92086F
:10135000626322002C321170236323612200A032C9
:101360001368C82B0FD9210000239D310B70210079
:101370009A310B7013600C4A9E3423709361536151
:1013800003220E4B1A70F8BD184AD25C6A70184AD4
:1013900076E71649C95C5170154ACAE71D1C002042
:1013A000801B002014020140601B002078010020F7
:1013B00024000020300000203C000020BC01002060
:1013C0005802002078020020A8020020900200208D
:1013D00040070140000701400407014008070140A1
:1013E0000C07014010070140140701402A000020AB
:1013F0003600002070B52C4D00242B0074332C7364
:101400006C73AC732C822C80AC61EC616C651C80BD
:10141000264B1A00303214701A001C705C809C80BD
:10142000DC801C811C825C829C82DC821C839C761A
:10143000DC611C845C629C62DC625C86DC6364232D
:101440003A321470EB651A4B2B626B62AB62EB6243
:101450002B636B63EB6D6B666B6EEB66EB6E9B00E9
:101460002B66144BEC635C611C83134BAC631C60F8
:101470005C60124B5C611C83114B1C605C6000F073
:10148000FDFC2B007C336C801C702B007D331C70AA
:101490002B007E331C802B008E331C802B0091355B
:1014A00090331C702C7070BDDC000020780100208F
:1014B00000BADB005802002078020020A8020020B9
:1014C0009002002070B5254B254D1B780024EB724F
:1014D0002B0074336C73AC61EC616C651C80214B28
:1014E0009C76DC831C845C629C62DC625C86DC87AC
:1014F0001A006423EB651C4B30322B626B62AB62CB
:10150000EB622B636B63EB6D14706B666B6EEB665B
:10151000EB6E9B002B66154BEC635C611C83144BDC
:10152000AC631C605C60134B5C611C83124B1C60E1
:101530005C6000F0A3FC2B007C336C801C702B00E3
:101540007D331C702B007E331C802B008E331C805F
:101550002B00913590331C702C7070BDBF010020A2
:10156000DC0000207801002000BADB0058020020D7
:1015700078020020A802002090020020034B10B542
:101580001B78034A9B009B58984710BDBC01002064
:10159000746E00000122014B1A707047BC010020DC
:1015A0000222014B1A707047BC0100200422014B3B
:1015B0001A707047BC01002010B500F065FA0222D5
:1015C000024B1A700022024B1A7010BD420000201C
:1015D000BC01002010B500F057FA084B1A7B084BED
:1015E000002A03D19A8F07490A409A879B8F002BC4
:1015F00002D10222044B1A7010BDC046DC0000204C
:1016000078010020F6FDFFFF4200002010B5FFF733
:1016100059FF054B1B7B012B05D10022034B1A7090
:10162000034B03321A7010BDDC000020BC01002007
:101630004200002010B5FFF745FF0222014B1A704F
:1016400010BDC0464200002010B500F0DDFA094B85
:10165000190076310A78012A05D19A6F632A03D8D6
:101660009A6F01329A6710BD00229A67024B0A7086
:101670001A70F8E7DC000020BC01002070B50D4BAB
:101680000D4C1D78237BEDB2012D0BD1002B02D127
:10169000FFF792FF70BDFFF7F5FC637B002BF9D1DC
:1016A0006573F7E7002BF3D0637B002BF2D1013396
:1016B0006373EFE753040020DC000020234B70B578
:1016C0001B78234C012B0FD1237B002B02D1FFF77A
:1016D00073FF70BDFFF764FC1E4B1B7D022BF8D916
:1016E00005221D4B1A70F4E7237B002BEFD0052257
:1016F000194B1A7003F086FA184BC0B2187060715B
:10170000E37A002B03D162790733934363716379E2
:101710009625DBB2A3716079C0B200F09BFD002377
:101720000F4A104810491360963B03800D800F4903
:101730000B800F490D800F490B800F4B01211D803D
:10174000FF23136002F00AFE2567C2E7530400205E
:10175000DC000020801B0020BC010020D401002000
:10176000400701400007014004070140080701400D
:101770000C0701401007014014070140104B10B541
:101780001B78104C012B10D1FFF722FD237B002B7F
:1017900002D1FFF711FF10BD0B4B9D331B78002BBF
:1017A000F9D00322094B1A70F5E7237B002BF0D008
:1017B00063690133636163690A2BF2D8EBE7C046C2
:1017C00053040020DC000020801B0020BC0100200E
:1017D00010B50B4C0B48E16BFEF77CFC2064236CCE
:1017E0009B002364226CE36C9B18E364626CE36CE3
:1017F0009B1AE364E36C9B086364636CA36410BD91
:10180000DC0000200054EA2A70B5154D002923D0D1
:10181000144B154CDA6A1B6C9A420BD92000E2611A
:10182000A36100F051FB236A104A2B6053602868C3
:1018300080B270BD02002B68143A9A4206D9143364
:101840001800C303286023602062F0E7020014320E
:101850009342F6D9143BF3E74B232B60E7E7C046EE
:10186000C801002078010020F80100207802002043
:1018700030B5414A13780133DBB2142B01D8137011
:101880001DE0002313703D4B9B8F012B03D10222DF
:101890003B4B1A700DE0022B02D1394B0422F8E7C2
:1018A000042B02D1364B0622F3E7082B08D1344A29
:1018B000137034490B78002B33D0012B47D030BD47
:1018C000102B02D12E4B0A22E3E7202B02D12C4B06
:1018D0000C22DEE7402B02D1294B0E22D9E7802BC8
:1018E00002D1274B1022D4E780225200934202D12A
:1018F000234BEE3ACDE780229200934203D1ED3A9A
:101900001F4BFF3AC5E78022D200934202D11C4B05
:101910001622BEE7802212019342CAD1184B182228
:10192000B7E701241848C2686240C260082217481D
:10193000C5686A40C2601648114D02782D781219A8
:10194000D2B202709542BAD803700C70B7E70E4A53
:10195000D0680343D36008230C4AD0680343D360A4
:101960000B4A13780133DBB2092B00D887E7002339
:1019700013700B70A3E7C046C4010020780100205B
:10198000C7010020C60100200008014040080140B6
:10199000C501002010B5124B124A1B7B928F002B01
:1019A00018D1002A13D110490B780133DBB2312B47
:1019B00006D80B7008210D4AD3688B43D36008E02A
:1019C00001230A700A4AD1684B40D360F2E7FFF75F
:1019D0004FFF10BD002AFAD1054A0121D368ECE778
:1019E000DC00002078010020CC01002040080140EC
:1019F00000080140802110B58900044803F050F828
:101A0000034B1870034BD87210BDC046000801404C
:101A1000BF010020DC000020802110B5890015489E
:101A200003F03EF8144A002811D1144B18701378B3
:101A3000012B0BD112490B780133DBB2052B01D8F6
:101A40000B7003E00F4B08701070D87210BD0021AE
:101A50000B4B107819708842F8D108490B78013384
:101A6000DBB2052BECD901231370064A0870D37240
:101A7000ECE7C04600080140BF010020BE01002085
:101A8000BD010020DC00002010B500240848094BEF
:101A900004801C80084B21001C80084B1C80084BD4
:101AA0001C80084B1C8002F059FC074B1C6710BDC2
:101AB0000007014004070140080701400C070140EE
:101AC0001007014014070140DC000020F7B5414C2D
:101AD0002388C72B34D80025A573FFF7D5FF2582AF
:101AE00025736573657BEDB2012D00D067E023009F
:101AF000626D5833384E632A34D800221A70636DF1
:101B00000133636596233360344B32689A4200DDBB
:101B1000336033684A2B01DC4B2333603268304931
:101B200053421BB22F480B8011B201802E48038014
:101B30002E4801802E4803802E4B19802267F7BD66
:101B4000962322885B009A42CCD9238A022B06D89E
:101B5000238A01339BB2238201232373C2E7032329
:101B60002382BFE71D70244F2088390080B200F027
:101B70002BFC78692A002B004B2180B2009500F0E5
:101B8000FDFB1E4BE16B186007001D48FEF7A2FA33
:101B9000E065E36D29009B00E365E26D236E38008C
:101BA0009B182366626E236E9B1A2366236E9B0826
:101BB0006366636EE366FFF727FE3060A4E70020EC
:101BC0004B21104B020019600090030000F0D6FB7F
:101BD000B5E7C046DC000020C0010020DC050000A5
:101BE0000007014004070140080701400C070140BD
:101BF000100701401407014058020020780200201D
:101C0000001C4E0EC801002000230F480F4A10B5DB
:101C1000038013800E4A0F4913800F4A13800F4A26
:101C200013800F4A13800F4A13670F4B0F4A1A6035
:101C30000F4A11601C210F4A11600F4A1B391A60AC
:101C400002F08CFB10BDC0460007014004070140B4
:101C5000080701401C1C00000C0701401007014050
:101C600014070140DC000020B0070140ADDE000099
:101C7000A0070140A4070140FECA00002A492B4BDF
:101C800000B50B6004280AD8294A2A4BFEF718FA37
:101C9000033A3E4347002848106008221A60274B49
:101CA00027481A8B524212B202801A8B254812B270
:101CB00002801A8B2448524212B202801A8B2348A7
:101CC00012B202801A8B2248524212B202801A8B40
:101CD000204812B202801A8B1F4892B202675B8BB7
:101CE0001E4A1BB213801E4B1E4A1A6000221E4B56
:101CF0000B601E4B1A6080231D4A1B0111680B43A9
:101D0000136000BD1B4810600422C7E7C02000011B
:101D100010601C22C2E71C2010600C22BEE716488F
:101D200010600022BAE7C046B0070140ADDE0000F7
:101D3000A0070140A407014008080000D8010020C6
:101D40000007014004070140080701400C0701405B
:101D50001007014014070140DC000020200701406B
:101D600040070140FFFF0000FECA000040040140A0
:101D700054040140040400000C1C000073B5002250
:101D800001269623344CA677E2772383238BF340F6
:101D900063836B46DD1D2A702B78042B4AD82F4AAB
:101DA000D3687340D3602B78DBB223702078C0B245
:101DB000FFF764FF00232377237F002BFCD0310043
:101DC000274802F0CBFA237F012BFCD900212448BD
:101DD00002F0C4FA234B244A1988908B2B78091AF5
:101DE0009B0009B2E31859602B7820499B00E31847
:101DF0005B688B4204DD2B78012B01D8E67705E088
:101E00002B789B00E3185B688B42F7DC0023637739
:101E1000637F042BFCD9E37F918F002B01D1002934
:101E200015D00023124803701248037080231B0151
:101E30000B43938772B600F0A3FD00F005FE8023EC
:101E40000D4A1B0111680B43136062B673BD2B78FA
:101E50000133DBB22B709FE7D8010020000801405E
:101E600000070140000401407801002088130000B1
:101E700042000020BC010020540401400D4B0E49DB
:101E8000802030B54B22996000210C4D0C4CC001D4
:101E90001D615C605A61D8601960D9611A62094B92
:101EA0005C6062241D615A619C60D8601960D961D0
:101EB0001A6230BDF80100208F020000DC0500002E
:101EC000660600001C0200208369C26901689A1A34
:101ED000436810B5534304695B18DB139C420ADA6C
:101EE000046284686243046A1B1BC4686343D31A98
:101EF0005B18036010BD44699C42F1DC0362F0E7AB
:101F000070B5224E224C1623F25E224B224D9A428D
:101F100029D80023F42223802988FF32914204D853
:101F20002B8801339BB22B800CE01C4A2B8053730F
:101F30001B4A13701B4A13702023B28F1343B387BD
:101F4000FFF7A2FD1623F25E174B9A4217D9002322
:101F5000F4222B802188FF3291420AD82388013352
:101F60009BB223800AE02B88002BEBD02B88013B0F
:101F7000D8E720222380B38F9343B38770BD238893
:101F8000002BFBD02388013BEAE7C0467801002004
:101F90004C0200202610000048020020DC00002037
:101FA00042000020BC01002001290000002203059E
:101FB00001D40005020D0720034B198848438018FF
:101FC000C00880B2188070474E020020094B1E21C5
:101FD0005A5E002A00DA00221A84996A1A8C521A70
:101FE000596A52185A6292089A62DA62024A1A646C
:101FF0007047C04678010020842E000070B5264E40
:10200000264B727B264C012A42D1264D264A1E20A1
:10201000295E914222DD1988244A914204D81A8807
:10202000013292B21A800CE00023214A73731370BC
:10203000204A13708023AA8F9B001343AB87FFF7BE
:1020400023FD1D4B1E216A5E9A421BDD2388C72B90
:102050000AD8238801339BB2238012E01A88002A11
:10206000EFD01A88013ADCE70023114A737313702A
:10207000104A13708023AA8F9B001343AB87FFF78E
:1020800003FD70BD2388002BFBD02388013BE2E7D2
:1020900000221A802280F4E7DC0000205002002099
:1020A0005202002078010020AF330000E703000057
:1020B00042000020BC0100204536000070B5474DAD
:1020C000474C6B7B1422A15E012B30D1454A464818
:1020D0001388814227DCF421FF318B4202D801337F
:1020E000138014E0002341496B730B7040490B705F
:1020F000F533FF3313803F4A322111803E4A13806B
:10210000A28FF33BFF3B1343A387FFF7BDFC1422D1
:10211000A35E3A4A934247DD394A1388092B30D8E7
:10212000013313803FE0002BF1D0013BD8E7354B62
:1021300099420EDC2F4A1388312BD0D900232B492A
:102140006B730B702A490B70F5332649FF330B80F4
:10215000D2E72D4B9942DADD2B7B012B0AD1264A9F
:102160001388002BE1D1234A13800222A38F9343CB
:10217000A387CCE71F4A1388002BD6D11E490B80BA
:10218000F2E7002319496B730B7019490B700A337E
:102190001380FA221D4B52001A800423A28F13438E
:1021A000A387FFF771FC70BD194A9342FBDC2B7BC0
:1021B000012B0CD1154A1388002B01D0013BB0E74D
:1021C0000F4A13800422A38F9343A387EBE70C4AA3
:1021D0001388002BF2D10D490B80F2E7DC000020C0
:1021E0007801002046020020BE05000042000020C9
:1021F000BC01002044020020420200208751000060
:102200004A02002044060000730A00004002002039
:10221000294900000B4970B50D0074352B88022B3D
:102220000ED908220024084B988FDC8702439A8736
:10223000064B4C731C70064B1C70FFF725FC2C8062
:1022400070BDC046DC000020780100204200002064
:10225000BC01002010B5184B184C19492360194BCC
:1022600001380B6005280FD8174A184BFDF728FFD7
:10227000221A1E110316164810601C221A60082329
:10228000144AD0684340D360134B236000230B6093
:1022900010BD124810601C221A60F5E7104810604B
:1022A0000C22F9E70F4810600422E7E70E4810609F
:1022B0000422F1E70D48F2E7ADDE0000B00701406F
:1022C000A8000040837A0000A0070140A407014055
:1022D000040C000040080140FECA00000C0400008D
:1022E0001C0400001C0C00000C1C0000041C00005E
:1022F00010B5144CA379834217D022008E32138874
:10230000C72B08D8230058331B78012B03D113881F
:1023100001339BB2138023007D331A78012A05D143
:1023200000221A70237ADBB2A37110BD63790648CC
:10233000DBB2037004F0FCFB2072207AC0B2FFF71E
:1023400089FFEFE7DC000020D9000020F8B5069CEB
:10235000070023616160E260A06018000D00FEF7D5
:10236000B9FC061CE81BFEF7B5FC011C301CFEF78F
:102370003FF80023E06163612383F8BD30B503AC0F
:102380002478104D012C17D10C1C814200D2041C62
:102390002988A0B2814211D9C418A14204DA288048
:1023A000288830BD891807E0814204D2841AA142EE
:1023B000F5DC8142F6D9C91A2980F1E78142F5D3CB
:1023C000EDE7C046540200208B6870B51A000F3A42
:1023D0000C00086082420AD901234A7E134300227E
:1023E0004B764A61032B01D1FD33238370BD8342B9
:1023F000FCD202254A7EC01A15434D76FEF76AFCD0
:10240000E169FEF707F9FDF7DBFF23696061984298
:1024100000D96361E36862699A4200D26361032D67
:10242000E4D1014BE1E7C04601020000054A064B3A
:10243000064913602023086803430B6000231360E0
:102440007047C046A8000040837A00008400004026
:10245000F0B589B072B6002380212D4A09011360BE
:102460001068FF26014311601F210327294A0493A6
:102470000593069307931360274A284C1160284D53
:1024800002A9881C25607600038001930188254BF2
:1024900099420ED90021244801F060FF049B234A91
:1024A0005B12938300F06CFA00F0CEFA62B609B0CA
:1024B000F0BD019B03930399B14224D911683943BC
:1024C00011601B490988049B09B29C466144049130
:1024D00018490988059B09B29C4661440591164933
:1024E0000988069B09B29C466144069113490988F4
:1024F000079B09B29C466144079125600188013120
:1025000089B20180C2E7039901310391D3E7C04644
:1025100054040140400401406C040140580401404F
:10252000A55A0000FF0100000007014078010020CB
:102530000004014004040140080401400C0401406F
:102540000D4B0E499A8B52180D4992B28A4203D90B
:102550001A0001213A3211701A003A321278002A18
:1025600008D0002207490A7007490A70998F103273
:102570000A439A877047C04678010020AC0D0000DE
:10258000581B000042000020BC01002010B5054B84
:102590001A8AC72AFCD9044ADA60FFF759FFFFF705
:1025A000CFFF10BD78010020586E00000022034BC1
:1025B000FE339A805A80DA807047C046C8020020F5
:1025C00070B588B001AC200002F064FA0123174E08
:1025D000237121003F3330000025019302F023FADC
:1025E0008023210030000193257102F01CFA300095
:1025F0000422072104AC02F05FFA04220621300015
:1026000002F05AFA200002F021FC96239B01049369
:102610000323210006482373A580A571E571E58198
:1026200002F0C8FBFFF7C2FF08B070BD40080140D0
:1026300000090140144B10B51B78DBB2022B0CD003
:10264000032B1DD0012B05D0104B588AFFF7AEFC91
:102650000F4B1880FFF73AFA10BD0E4B0C4A1B685F
:10266000002B0ADA00215B42D172E121C9008B42C2
:1026700000DD0B009BB21380ECE70121D172F4E77F
:1026800000F098FEE6E7C046CE0300207801002067
:10269000DC000020D003002030B5012305000F240A
:1026A0000A495C355B42A84201D1D84330BD02786B
:1026B00001305A40130922409200525853401A09DF
:1026C00023409B005B585340EDE7C046906E0000EE
:1026D00010B50D4C5422200000210C3003F0C5FD34
:1026E0000A4B2360022363606233A360E1239B00F3
:1026F00063610523A361043B6362E123DB00A36202
:1027000032235A34238010BDD8030020EFBEADDE43
:1027100010B59AB002AA1821104801F0F9FD104B2B
:10272000029A9A4214D1039B0193022B10D102A862
:10273000199CFFF7B1FF84420AD1602202A909481F
:1027400003F08AFD084B1A68084B1A601AB010BDD6
:10275000FFF7BEFF0122064B1A70F3E700F00300FB
:10276000EFBEADDED8030020381C00203C04002062
:10277000380400200122014B1A70704738040020F1
:10278000014B1878C0B2704740040020F8B51D4BCB
:102790001B78002B11D01C4A137B002B0DD11B4E34
:1027A0001B4D336829685B1A1A498B4205D972B6EA
:1027B000177BFFB2002F01D062B6F8BD164C200087
:1027C000FFF76AFF154B164AE06516481A6001F0DC
:1027D000B9FC154B154A60211A601248220001F01D
:1027E000F7FC134A002805D0064B1F70177033689A
:1027F0002B60E1E71378FF2BF9D013780133DBB2BC
:102800001370F4E738040020DC000020381C00209E
:102810003C0400205FEA0000D8030020481C002090
:102820001F360D9A00F003004C1C00200CA4FD9AEA
:10283000400400200C4B1A68002810D001321A60A6
:102840000A4B19680A4B1A6819600A4B8A1A9A428D
:1028500007D8FA239B005343074A13607047013A95
:10286000EDE701235B42F7E744040020381C002019
:102870004C040020FF083D0048040020F0B585B05E
:1028800001AD280002F006F9FC2301262D4C1B02A5
:102890002900200001932E7102F0C5F820000322C8
:1028A0000A2102F009F9200003220B2102F004F9A9
:1028B000200003220C2102F0FFF8200003220D214A
:1028C00002F0FAF8200003220E2102F0F5F80322AC
:1028D00020000F2102F0F0F80027702329002000CB
:1028E00001932F7102F09FF820000222042102F0D0
:1028F000E3F820000222052102F0DEF80222200087
:10290000062102F0D9F8082329000F4801932E71FF
:1029100002F089F8802329009B00200001932F7189
:102920006E7102F080F8FFF781FD290020002E7102
:10293000019602F078F832003100200002F0B6F87B
:1029400005B0F0BD000801404008014030B587B037
:1029500001AC0500200002F045F90123074A23716C
:10296000E260E3703F22E371237200232000A57030
:102970002280237402F008F907B030BD007C920079
:1029800010B58AB001AC200001F03AFF802301228B
:10299000DB020393002306920B4A21000B480493A9
:1029A00005930192A38001F0D9FE094B094A1A60F0
:1029B000FF22094B1A608023084A1B0111680B4350
:1029C00013600AB010BDC0460800010000040140B9
:1029D00040040140409500006C0401405404014053
:1029E000F0B5002401250426070099B001A802F0E3
:1029F000C7F9114B01A91148079301950A950B944A
:102A00000C940895029416940594179602F064F9B4
:102A100001A802F0B5F90A4B01A90A4801941095E2
:102A2000119412940E940394079316940597179695
:102A300002F052F919B0F0BDC05D00000005014080
:102A400080BB00000006014030B5A1B001AC200001
:102A500001F09CFC7A20274D68440580264800231D
:102A6000208126488021208064204042E0839130EC
:102A7000FF302084E438E084208507306844037008
:102A800014A80370512068440370522068440370F6
:102A900053206844037015A803700EA803705720D4
:102AA0006844037075206844037076200122490051
:102AB0006844A1800270E18702206946FF30063138
:102AC000C88702A9E382238363836385A385E385A3
:102AD0006386CB8712ABA27122871A70084B094A12
:102AE00021001A60084A09481A6001F055FC21B01B
:102AF00030BDC0463F1300000C0C0000DC05000098
:102B0000B0070140ADDE0000FECA00000007014032
:102B100013B501AC200001F017FF00232000237043
:102B200001F018FF1B2001F05DFF13BD00B59FB041
:102B300001A801F0E9FE80200021800102F092F856
:102B400080200121C00102F08DF80523012202211D
:102B50000193002301A802921991189316931293DE
:102B60000D910C930A92079201F05CFE1FB000BD1C
:102B7000802010B50121800002F074F8044B054A52
:102B80001A60054A1168116000221A6010BDC04623
:102B9000A8000040837A000010000040002382B0AB
:102BA0000193019B834201D302B07047C046019B51
:102BB0000133F5E770B572B6374B384A384D1A60B5
:102BC00001F0C4FB80228023520211681B030B43D7
:102BD0001360302001F052FA642001F095FAFFF7FB
:102BE000EFFCFFF74BFE0020FFF7B0FEFFF7C0FF42
:102BF000FFF7C6FEFFF78CFFFFF798FF0020FFF7F7
:102C0000EFFEFFF721FF03F061FF03F07DFF0120DE
:102C100001F002FF2348FFF7C1FFC121224B8900C9
:102C20005A5880201202120A5A50C222802118607B
:102C300092009C58C9032C40214399508021FF24C5
:102C4000C90019600139FF395E58A6433043585016
:102C5000012018605858154E304058500220186016
:102C6000585805408020000428435850042119601A
:102C70009958314099508021890019609858C1397C
:102C8000A043FF3901439950802252001A6064200A
:102C900001F00AFA62B670BDA8000040837A000015
:102CA000FFFF00FF20A1070000E100E0FF00FFFFA1
:102CB00010B5602001F0E2F90A4B0B4A64201A605B
:102CC00080230A4A1B0211680B431360FFF766FF5B
:102CD000074A084B116808480B43136001F0ECFFEA
:102CE00010BDC046A8000040837A000010000040DC
:102CF00080000040FF010000FF0F000010B5FFF74B
:102D0000D7FF10BD184B1A88184B998B521A1849C7
:102D1000DA830A8812B2002A10DA002215499A8250
:102D20000A8812B2002A12DA002213495A820A884B
:102D300012B2002A0FDA0022DA82704709881420C2
:102D40001A5E09B25118CA0F52185210E6E70A88E3
:102D500012B21211E9E7098816201A5E09B2511859
:102D6000CA0F52185210E7E7000401407801002012
:102D700004040140080401400C04014003230D4AEF
:102D800010B511680B4313600B4A138A01339BB2D1
:102D9000138201F059F9FFF7B5FF084B9A7F012A1A
:102DA00007D11A7F0132D2B21A775A7F0132D2B2DA
:102DB0005A7710BD6C04014078010020D801002032
:102DC000802070B5400201F02BFF002800D1B5E053
:102DD0008020400201F02AFF01F014FF654D2870A9
:102DE00001F018FF2B78644C644E63713060E07A18
:102DF000C0B2FFF71FFD624B1A78042A50D9002297
:102E00001A701B78326808339B00E250637B012BF9
:102E100011D1230091331978C9B200290BD16379FC
:102E20005848594A052B02D06379002B3AD163796F
:102E30000370012313700023A3631A000832920069
:102E4000A158A26B01335218A263062BF5D14F4A49
:102E50001370A36BE363E37A002B03D1627907332A
:102E600093436371637B012B2ED16079C0B2FFF76E
:102E70003FFA220091321378DBB2002B24D12100DB
:102E80008E3109881E291FD93E484178042912D164
:102E90004379012B66D1210090310B70137013E040
:102EA0000132ADE713786679C654042B01D801339B
:102EB000C0E71170BFE7012954D14079042851D1EE
:102EC000200090300370117023008E331B88002384
:102ED0006361237BDBB2012B30D12D4A11780229AB
:102EE0002CD163730433137001F08CFEC0B22870D0
:102EF0006071E37A002B03D16279073393436371E6
:102F000063794B25DBB2A3716079C0B2FFF7A2F9F8
:102F10000023204A2048214913604B3B03800D8049
:102F20001F490B801F490D801F490B801F4B01213A
:102F30001D80FF23136001F011FA256780208002B5
:102F400001F06EFE00280CD08020800201F06EFEA1
:102F5000094B5A7B012A04D174331A88013292B288
:102F60001A8070BD220000238E321380220091321D
:102F700094E7C046D4010020DC000020D0010020EE
:102F80005104002070010020500400205204002051
:102F9000BC01002040070140000701400407014038
:102FA000080701400C0701401007014014070140C9
:102FB0000422034B1968114200D01A607047C046C2
:102FC0002006014004220B4B10B5196811420FD0A6
:102FD0001A60094B1A7801321A705A8801325A80E5
:102FE0009A8801329A80DA880132DA8003F0B0FDE3
:102FF00010BDC046200501407801002013B5204CCB
:103000002368DB0713D51F4B1B78DBB2012B0ED1D6
:10301000802223601C4B52001B681C4813401C4A32
:10302000D360D3681B0ADBB2037003F06FFE02218A
:1030300023680B4218D06B46D81D00232160124C28
:1030400003700278032A10D9022B0DD90023114AEC
:103050005373114A1370114A1370114A0133918F3F
:103060000B439387FEF710FD13BD22680A4201D07F
:103070000133DBB202780132D2B20270E1E7C0461E
:10308000040201405304002014020140601B002090
:10309000801B0020DC00002042000020BC0100203A
:1030A000780100207047000070B52025094C236886
:1030B0002B420ED00023084A5373084A1370084A63
:1030C0001370084A0133918F0B439387FEF7DCFCA2
:1030D000256070BD94070140DC0000204200002004
:1030E000BC010020780100200F22014B1A607047BC
:1030F000880A01407047704701220D4B1968114240
:1031000003D000211A600B4A117002221968114283
:103110000DD009491A600A00084BFE32D86853885E
:10312000C8540133DBB25380D3880133D380704756
:103130002009014043000020C8020020000901408E
:10314000FEE700000822034B1968114200D01A6004
:103150007047C0468C0801407047704710B5174C47
:103160002378012B15D900232370FFF763FAFEF7AC
:103170002FFBFEF7A3FFFFF74DF8FEF727FFFEF743
:103180003DFFFEF7BDFE0E4B0E4A1B789B009B5881
:1031900098476388132B09D900236380FEF7FAFB55
:1031A000FEF73AFC00F0E0F900F000FAA388C72B24
:1031B00003D90023A380FFF7E9FA10BD78010020AE
:1031C00042000020646E000007B500F019FF2C4893
:1031D000FFF7E4FC2A48FFF7E1FCFFF7EBFCFFF701
:1031E00097FA284B59331B78012B41D10022264BEB
:1031F0001A70FEF7FFF8FEF741FEFFF7C7F900F07F
:1032000077F9FEF7BBFD0121204A9620D3684000E4
:103210008B43D36008231E4AD1680B43E121D3605E
:103220001C4B4B220093C9001B4BFFF78FF8FA226F
:10323000E1219620194B9200C90040000093184BE1
:10324000FFF784F8FEF7D6FB01F0DCFC154BC0B2AB
:103250001870154B5871DA7A002A03D15979073260
:103260008A435A715A79D2B29A71FFF777FFFCE715
:10327000022B02D1044B0122BAE700F017F8B8E79D
:10328000204E0000D8030020530400200008014015
:103290004008014058020020DC050000A802002080
:1032A00010270000D4010020DC000020F8B51A4BE4
:1032B0005A331888FA235B0098421CD9180005215C
:1032C000FCF708FF07004620784364216330FCF7D1
:1032D00001FF002506002C0001F094FC0138C0B26B
:1032E00005280CD80134A64209D800220B4B1A70CD
:1032F0001878C0B2F8BD0528E1D20520DFE70848FC
:103300000135FFF74BFCAF42E6D1B442A441034B79
:1033100064421C70ECE7C046D80300205304002030
:103320007C9200000023044A1360044A1360044B9B
:103330001A68044B1A607047580400205C0400208F
:10334000440400205404002070B5FDF779FC0849BE
:10335000FDF760F90749FDF74BF8FDF751FC032233
:10336000054C064B2568401920601A7070BDC04698
:103370000000904162149D4354040020CE030020BD
:1033800010B5FDF75DFC0749FDF744F90649FDF767
:103390002FF8FDF735FC0322044B1860044B1A701C
:1033A00010BDC0460000904162149D4354040020AB
:1033B000CE0300202E4A2F4BF0B51B68146885B051
:1033C000E41A2D4BDA685D6901921A699F680292CE
:1033D000002D01DCE125ED00284E3368E21864235E
:1033E0006B439A4231DC326032685B42934200DDCB
:1033F0003360234B64211A683068A21A1C60039260
:10340000FCF7F2FE019B67434343D819039B029FDD
:1034100064215F43C019FCF7E7FE2B00854200DD05
:1034200003006D42174A9D4211DC002B11DA002186
:103430005B42D172E11764184C40022C0CDC002373
:1034400033609BB2138005B0F0BD3360CCE72B0036
:10345000EDE70121D172EDE7E121C9008B4200DDEA
:103460000B00962149008B42EBDA0B00E9E7C046DE
:103470005404002044040020D803002058040020F5
:103480005C040020DC00002070B503000125074A21
:10349000074E1C1AA14201DC080070BD15701C7893
:1034A000F4601478002CFCD10133F2E743000020D3
:1034B0000009014010B5FFF7E7FF10BD024B034ABA
:1034C000DA60BFF34F8FFEE700ED00E00400FA057D
:1034D00010B50400013C00D210BD0248FFF75EFBAE
:1034E000F8E7C0464C1D000010B500F0C1FD10BD4E
:1034F000144B154A10B51A60144B154A154C1A6036
:10350000154B164A20001A602300154AFC335A62F4
:10351000144A9A6202F090FD200000F02FFC200077
:1035200000F0EAFC200000F0C7FB200000F038FAB1
:10353000200000F0DBFAFFF7F5FE200000F066F84F
:1035400010BDC04668000020E9340000640000207F
:10355000D1340000600400206C000020BD34000065
:1035600089340000B534000070B58024FF25640064
:103570000A490800FE30C288002A00D170BD084BFD
:10358000013ADC678388C95C01332B408380054B9B
:10359000C2801C60044802F035F9E9E7C802002047
:1035A00004E100E000E100E06004002010B5024802
:1035B00002F06AF810BDC0466004002070B50B4CE4
:1035C00026680F2E11DC751C25601C257543084CE0
:1035D000295561194A6000220B61049B8A604B6186
:1035E000044B0A738B6102F0E3FC70BD7418002079
:1035F000B4160020F935000010B5140002F00CFBE1
:10360000572C01D1FFF7B6F810BD0000F7B504251F
:1036100004000095534B544A8021FFF7CFFF0095DB
:103620002000524B524A8121FFF7C8FF009520002D
:10363000504B514A8221FFF7C1FF009520004F4BAC
:103640004F4A8321FFF7BAFF009520004D4B4E4AA9
:103650008421FFF7B3FF009520004C4B4C4A852195
:10366000FFF7ACFF009520004A4B4B4A8621FFF73D
:10367000A5FF00952000494B494A8721FFF79EFF8F
:1036800000952000474B484A8821FFF797FF009597
:103690002000464B464A8921FFF790FF2C23012743
:1036A00000932000434B444A9021FFF787FF009787
:1036B000424A2000424BA021FFF780FFB02341493E
:1036C00000260B70404B41484B6011230B73404B5D
:1036D000886120008E600B614F6102F069FC0097E9
:1036E00020003C4B3C4AB121FFF768FF02233B4AD4
:1036F0000093B2213A4B2000FFF760FFFFF740F83C
:10370000B5223849384B0A70384A18704A6011227D
:103710000B612E4B20000A738E604F618B6102F0AB
:1037200047FCB623324913370B70324B20004B60F5
:10373000314B8E600B61254B0F734D618B6102F035
:1037400037FCB4232D4920000B702D4B8E604B604D
:103750002C4B0F730B611D4B4D618B6102F028FCEC
:10376000F7BDC046D8030020D06E0000E003002063
:10377000E36E0000E4030020F26E0000E803002086
:10378000016F0000EC030020106F0000F003002028
:10379000216F0000F40300202D6F0000F8030020CB
:1037A000396F0000FC030020456F0000000400207A
:1037B0005C6F000004040020676F0000736F00005E
:1037C0003004002078180020846F0000A55E0000FF
:1037D0005304002031040020966F0000AA6F0000FF
:1037E00032040020CC180020E8180020C36F00002D
:1037F00094180020DB6F0000301C0020B01800205F
:10380000F66F000044000020F7B50F4C05000E00D5
:10381000170000210A222000019302F026FDAA23AE
:1038200063710A4B0A4A5B8A31009B189BB2DAB279
:103830001B0A6270A370E27023713A002800019B9A
:1038400002F030FBF7BDC0460019002078010020CF
:103850007CFCFFFF10B5140002F0DEF9572C12D1EA
:10386000094A91681368002908DD48421A008B4212
:1038700000DD0A000300904200DA1300034A1360DF
:103880000222034B1A7010BDEC180020D003002058
:10389000CE030020F0B585B001900F001500029313
:1038A000522A01D0732A2BD1324C00212022201D14
:1038B00002F0DBFC304B314E1A68B06C2260E12222
:1038C000D200A260962252001B68E260643A226134
:1038D0000393FDF7B5F92A49FCF79CFE2949FCF74B
:1038E00087FDFDF78DF9039B2A00C01A33886061BC
:1038F000E3613900029B019802F0D4FA05B0F0BDF3
:10390000029B019802F088F9572DF7D1194B1B4CF7
:103910001868194B1860002824DA00234042E3722B
:10392000FDF78EF91749FCF775FE1549FCF760FDA8
:10393000FDF766F9144B984217DC002398420BD030
:10394000FA208000114B1249C018124B5843FCF763
:103950004BFC03002D33FF3301229BB223800E4B1F
:103960001A70CBE70123E372DAE70C4B9842E9DDEA
:103970001800E7E70C190020D4030020DC00002029
:1039800062149D4300003443E703000018FCFFFF6E
:1039900028230000DC050000CE03002010270000D3
:1039A000012373B51C4900240B701C4B05004B60B0
:1039B0001B4B8C600B610A234B611A4B0C738B61A0
:1039C00002F0F6FA0323184928000B70174B8C609D
:1039D0004B60174B0C730B6124234B61154B8B61B0
:1039E00002F0E6FA0D231449144E0B70144B280014
:1039F0004B6014234B61134B0E618C600C738B6115
:103A000002F0D6FA082328000093220033000E218A
:103A100002F0FEFA73BDC0463019002008700000A5
:103A200000190020093800004C1900201C7000000B
:103A30000C1900209538000068190020EC180020AF
:103A40002670000055380000F7B50F0000901400F4
:103A50000193522A01D0732A25D1184D1C2200212E
:103A6000281D02F002FC164E3068FDF7E9F81549F2
:103A7000FCF7D0FDFDF7C4F8134B286030681B68D5
:103A8000C01AFDF7DDF80F49FCF7C4FDFDF7B8F8E3
:103A90000E4B28611B882200AB613900019B009806
:103AA00002F000FAF7BD019B009802F0B5F8572C20
:103AB000F8D1024B1868FFF763FCF3E78419002084
:103AC0005404002057A08B4144040020DC00002057
:103AD00010B5140002F0A0F8572C03D1024B18685F
:103AE000FFF732FC10BDC046A41900200523114980
:103AF00070B50B70104B00244B60104B05000B6130
:103B000008234B610E4B8C600C738B6102F050FAF2
:103B100006230C4928000B700B4B8C604B600B4B41
:103B20000C730B6120234B61094B8B6102F040FA4F
:103B300070BDC046AC1900202E700000A4190020F2
:103B4000D13A0000C81900203B7000008419002001
:103B5000493A0000F7B501930D4B0E4C1B68050068
:103B60000E00170000210822201D009302F07DFBAB
:103B70000098FDF765F80849FCF74CFDFDF740F8A3
:103B80003A00206031002800019B02F08BF9F7BD5C
:103B9000440400202C1A002057A08B41F7B50500E3
:103BA0000E00170001930B4B0B4C1B68201D0C22C1
:103BB0000021009302F059FB084A0099136828007D
:103BC000CB1A236013683100A3603A00019B02F016
:103BD00069F9F7BD44040020081A0020181A0020D3
:103BE000F0B51A4C85B0019020000393184B029158
:103BF0001E68184B1700002118220C309D6C02F033
:103C000034FB154B2660A36065603000FDF718F8A3
:103C10001249FCF7FFFCFCF7F3FF20612800FDF7D9
:103C200059F80F49FCF7F6FC0E49FCF7E1FBFCF7ED
:103C3000E7FF0D4BA0611B683A00E3610299039B0B
:103C4000019802F02FF905B0F0BDC046E41900203C
:103C500044040020DC000020398E633D57A08B41D6
:103C600062149D430000344348040020F7B5060069
:103C70000F00150001930D4C572A05D101F0CCFF20
:103C8000A2680B4B1A60F7BD201D0C22002102F028
:103C9000ECFA084B2A001B6839002360044B300003
:103CA0001B68A360019B02F0FDF8ECE71C1A0020E2
:103CB000181A0020440400200223204970B50B701C
:103CC0001F4B00244B601F4B05000B6124234B61ED
:103CD0001D4B8C600C738B6102F06AF90423102673
:103CE0001A4928000B701A4B4E614B60194B8C60BF
:103CF0000B61194B0C738B6102F05AF907231749BA
:103D000028000B70164B4E614B60164B8C600B619C
:103D1000154B0C738B6102F04BF90C231349144AB9
:103D20000B704A604B61134A134B28008C600C7374
:103D30000A618B6102F03CF970BDC046381A002060
:103D400044700000E4190020E13B0000541A0020F8
:103D500050700000081A00209D3B0000701A0020DF
:103D60004D7000001C1A00206D3C00008C1A0020D1
:103D7000597000002C1A0020553B0000F7B50226B0
:103D80000400012504270096224B0022402102F066
:103D90003FF90095204B00224121200002F038F924
:103DA00000951E4B00224221200002F031F90097BD
:103DB0001B4B00224321200002F02AF90096194BE8
:103DC00000224421200002F023F90097164B002224
:103DD0004521200002F01CF90096144B00224621D8
:103DE000200002F015F90096114B00224721200017
:103DF00002F00EF900950F4B00224821200002F03E
:103E000007F900950C4B00224921200002F000F92F
:103E1000F7BDC046DC000020E7000020E8000020DD
:103E2000240100208C010020A4010020B401002006
:103E30008E01002042000020BC010020F7B51B4C81
:103E4000009020000E00170000216C220C3001931E
:103E500002F00BFA164D1423E85E2060FCF7F0FE2A
:103E60001449FCF7D7FB1449FCF7D4FB6060162219
:103E7000AB5EE86AA360114BA361FCF72BFF10490E
:103E8000FCF7B6FA0F492062A062FCF7C3FBFCF70F
:103E9000B7FE0D4BA0631B6F3A00636423643100CF
:103EA000019B009801F0FEFFF7BDC046B01A00204C
:103EB000780100203683E63800000842842E000096
:103EC000C96525440000C842DC00002010B514007C
:103ED00001F0A2FE572C0AD1054AD37891781B0233
:103EE0000B4304D00123034AD1684B40D36010BD7B
:103EF000A81A002000080140082373B51B490400DC
:103F00000B701B4B00254B601A4B01260B6178236D
:103F10004B61194B8D600D738B6102F049F800966F
:103F2000164B11220921200002F072F80096144B62
:103F300011220A21200002F06BF800961122114B89
:103F40000B21200002F064F821230F4920000B70A0
:103F50000E4B8D604B600E4B0D730B6104234B6158
:103F60000C4B8B6102F024F873BDC046281B002067
:103F700061700000B01A00203D3E0000E800002003
:103F8000AD1A0020AC1A0020441B002079700000FC
:103F9000A81A0020CD3E0000124B134A10B5136042
:103FA000124B134C1968013821401960052812D8AA
:103FB000FCF786F8030A0D0D0A0318680D49014342
:103FC00019600023136010BD18680B49F7E7C3217F
:103FD00018688900F3E7094B19680131F1D01968B5
:103FE0000131EDE7837A0000A80000401400004092
:103FF000F3F800000C0400000C050000301C002049
:104000000B4A0C491068002388420CD150680A49B9
:10401000884208D190680949884204D1D368084A87
:104020009B185A425341074ADBB213707047C0468F
:10403000480000200100FECA0200FECA0300FECABA
:10404000FCFF0135341C0020074A138801339BB262
:104050000F2B01D81380704700231380034A136885
:1040600001331360F7E7C0463C1C0020381C0020D9
:10407000014B18687047C046381C00200421074ACD
:10408000C00813688B431360054B1860FA2380B295
:104090009B005843034B18607047C04610E000E097
:1040A000441C0020401C00200022084B08491B68CB
:1040B0005843084B58609A6001321A601A680A40E7
:1040C000012AFBD000221A609A607047441C00202D
:1040D0000100010010E000E00022084B08491B68C5
:1040E0005843084B58609A6001321A601A680A40B7
:1040F000012AFBD000221A609A607047401C002001
:104100000100010010E000E0872170B58900050082
:10411000FBF7E0FF8721C4B289002800FCF760F8B4
:1041200087260D00B600002C05D1002D02D02800F6
:10413000FFF7D2FF70BD3000013CFFF7CDFFE4B2C6
:10414000F1E70000194B70B51A68194D1949AA42D8
:104150000FD1194A194C0A601A68194E6240146846
:1041600034401460174C20608020146800062043FF
:1041700010601A68AA420ED10F4A0A601868124AE3
:1041800042401248106080204002026852005208EB
:10419000026000221A6000200860802149020A683B
:1041A000520052080A60186070BDC046481C0020CA
:1041B0001F360D9AD0000040CA8F00001F360C9A9F
:1041C000FF7FFF7F040001000F360C9ABADC5476A3
:1041D0000123F0B587B002AC3A4DE3712E683A4B3B
:1041E0009E4229D1394B3A4C3A4E23602B683A4FC4
:1041F00073401E6803313E40384F1E6038601E68B1
:10420000B44680266446360526431E6000232B6094
:10421000033399430193324B059100919C46110061
:104220000490059B002B17D100992E4E0591049008
:104230001800059B002B28D100228021244B490225
:104240001A600B68284803400B601E4B1A6002ABD3
:10425000D879C0B207B0F0BD049B019CA3433B607A
:104260000B784D781C008B782D021B042D19ED184E
:104270006346CE7804313606AD191D60059B043BBC
:104280000593049B04330493CBE70321049B8B43E6
:104290003B60137851789C4693780902D578614445
:1042A0001B04C9182D06346849198C4201D002AB91
:1042B000D871059B0432043B0593049B043304939B
:1042C000B7E7C0464C1C00200CA4FD9A358F0000B7
:1042D000D40000400CA4FC9AFF7FFF7F0400010083
:1042E000080001000C000100FFF7FFF780225202D6
:1042F000136804490B401360034B1860034B1868A4
:104300007047C046FFF7FFFF040001000C000100EA
:10431000002337B51400012500930193019100900B
:10432000019B002B00D137BD0098FFF7DFFF064A45
:10433000206013682B42FCD0019B0434013B0193A5
:10434000009B04330093EBE718000100F022024BBE
:1043500092015A607047C046000C01400200084BB1
:10436000B0321360A830012906D1402301680B4305
:104370000360044B13607047036803490B40F7E781
:10438000ADDE0000FECA0000BFFF000010B57A22BB
:10439000002101F06AFF10BD70B505000C0010206F
:1043A000012100F049FC2A00E94BB0321360637927
:1043B000A17A9B0009010B43217920000B43E17A8C
:1043C0003E3049010B43A17989010B43E179C901D1
:1043D0000B43217B09020B43617B49020B43EB67D3
:1043E000238821002B63638832316B63E38B2B625C
:1043F000238C6B62638CAB62A38CEB6223892B678B
:1044000023002B331B7809785B0089010B432100C3
:104410002A3109780B43E18AC9010B4321002C3171
:10442000097809020B4321002D31097849020B4319
:1044300021003331097889030B43218BC9030B43D6
:104440002900A0310B60230021002F3334311B7869
:1044500009785B0089010B4321002E3109780B4359
:10446000618BC9010B4321003031097809020B43EC
:1044700021003131097849020B4321003531097897
:1044800089030B43A18BC9030B432900A4310B60A3
:10449000230044331978023B1B7800789B0000010D
:1044A0000343200040300078C901034320003F301F
:1044B000007840010343200041300078400003436E
:1044C000200043300078C000034320004C300078C7
:1044D0000B430002034320004B30007840020343AB
:1044E00020004E3000788002034320004D300078D9
:1044F000C002034320005030007800030343200033
:104500004F300078400303432800A83003602300A5
:1045100049331B7820389B000B4321004731097831
:104520000B4321004531097809010B432100463135
:10453000097849010B4321004831097849000B43B0
:1045400021004A310978C9000B4321005131097813
:1045500009020B4321005231097849020B4329001B
:10456000AC310B6023002100383339311B780978D6
:104570001B0149010B432100363109780B4321000F
:104580003C31097889010B43210037310978090250
:104590000B4321003A31097809030B4321003B31D9
:1045A000097849030B4321003D31097889030B4306
:1045B0006B67E38C2B65238D6B65230076331B883B
:1045C000AB67E389AB64238AEB641221635EAB6360
:1045D0001421635E2100EB632300553154331B78B3
:1045E00009785B0089000B432100533109780B43A4
:1045F000210056310978C9000B4321005731097851
:1046000009010B4321005831097849010B4321006E
:104610005931097889010B4321005A310978C901C0
:104620000B4321005B31097809020B4321005C3107
:10463000097849020B4321005D31097889020B4357
:1046400021005E310978C9020B4321005F310978EE
:1046500009030B4321006031097849030B43210012
:104660006131097889030B43291DCB6723002100A1
:10467000633364311B7809785B0009020B43210026
:10468000623109780B4321006531097849020B43F7
:1046900021006631097809030B432100673109784D
:1046A00049030B4321006831097889030B430360F8
:1046B00023002000713372301B7800781B01400109
:1046C0000343200073300078290080010343200059
:1046D000743000780831C001034328009030036033
:1046E000230020006A336B301B7800785B00800069
:1046F0000343200069300078034320006C300078C9
:10470000C000034320006D30007800010343200007
:104710006E3000784001034320006F300078800144
:1047200003432000703000787834C0010343280030
:10473000983003602B0020789C331860054B2B6465
:10474000CB67943584310B602B60034B136070BDD5
:10475000ADDE0000FFFF0000FECA000070B50500DE
:1047600080200C004000012100F07CFA2288002308
:10477000042A01D9131F9BB21A4A1B481B491B026A
:1047800010600B60002111606388AB66A388E68A25
:104790009B0236033343A68A3343268936013343CB
:1047A000668A360233439BB26B65A389E6891B0197
:1047B0003602334366893343268A360333432B65F7
:1047C000258C0B4B1D60E58B0A4B1D60A58B0A4B9E
:1047D0001D6010600948638C05689B012B430360D2
:1047E000116070BDA8000040837A000018000040EE
:1047F00030040140340401403804014014000040FA
:10480000002343808380C380038143818381C381EC
:10481000038243828382C3828383C383038443846A
:104820007047000070B504000121082000F004FA70
:104830006369A26C5B0212021343626C2D4813433E
:10484000A269520013432C4A1360236861681B015C
:10485000C9000B43A1680B439360E369216ADB0144
:1048600089010B43A16D0B43616A49010B43A16AA6
:1048700009010B43E16CC9000B43216D89000B4317
:10488000616D49000B43D360636BA16BDB01890150
:104890000B43216F0B43E16B49010B43216C090171
:1048A0000B43616EC9000B43A16E89000B43E16E9F
:1048B00049000B4313611149114BE6680B60E36A31
:1048C000F6021B03056833430E4E35402B43E56D5E
:1048D0002D022B432569ED012B43256B246E2D0101
:1048E0002B43A4002343036000230B600333536076
:1048F00070BDC0461400004000020140A800004006
:10490000837A00004380000000230122036042609C
:104910008360C260036143618361C3610362436278
:104920008362C362036343638363C3630364436457
:104930008364C364036543658365C3650366436637
:104940008366C3660367704710B50322002101F038
:104950008CFC10BD70B5040080200121000100F026
:1049600081F91A4B1A491B681A4A1B48DBB263705B
:104970000A602278056852002A430260174A0A60DA
:10498000012B0CD1E020164C4000237002F08EF970
:104990006080E220400002F089F9A08070BD022B07
:1049A000FCD1A278002AEDD0012AF7D1E020032320
:1049B0000B4C4000237002F079F9000C6080E2207B
:1049C000400002F073F9000CE7E7C0460400004025
:1049D000A8000040837A000014000040FFFF0000A0
:1049E000501C00200A4B02215A5EFF2800D9FF20EC
:1049F00050439B88400AC018031C00B2FF2800DD0A
:104A0000FF231A0400D50023024A1BB2136070472B
:104A1000501C00202C0000400100802010B54000F8
:104A200000F00AF910BD012300229C46F0B50D6884
:104A3000634693401C002C40A34222D10C79002CE9
:104A400005D104681C43046044689C4306E0012CC3
:104A500006D104689C43046044681C43446001E040
:104A6000022CF1D04C79012C0FD104691C43046154
:104A700087698E683C009C43012E01D13B431C009A
:104A800084610132102AD3D1F0BD002CF0D1046929
:104A90009C43ECE70023036003714371836070471C
:104AA00080680840411E8841C0B27047002A01D08A
:104AB000016370474163FCE700B503000F290FD87D
:104AC0000800FBF7FDFA080E12161D23272B3238BB
:104AD0003C40474D5155196A2848014052181A6206
:104AE00000BD196A12012648F7E7196A1202254823
:104AF000F3E7196A12030905090D51181962EFE766
:104B0000596A1E48014052185A62E9E7596A12016F
:104B10001B48F7E7596A12021A48F3E7596A120369
:104B20000905090D51185962DAE7996A13480140DD
:104B300052189A62D4E7996A12011148F7E7996A04
:104B400012021048F3E7996A12030905090D51187A
:104B50009962C5E7D96A094801405218DA62BFE78D
:104B6000D96A12010648F7E7D96A12020548F3E745
:104B7000D96A12030905090DEFE7C046F0FF0000EE
:104B80000FFF0000FFF0000010B50400012102201B
:104B900000F052F8A378E2781B0412051343228830
:104BA0001343227912061343627952061343A27902
:104BB00092061343E27912071343227A52071343F2
:104BC000227C92071343044A1360E268034B1A6085
:104BD0000022034B1A6010BD000301400C0301408A
:104BE00004030140054BFA220360054B9200436029
:104BF0000023C260037203747047C046FF030001C4
:104C000001000001024B1868072318407047C04696
:104C100004030140014B98687047C04600030140FF
:104C2000014B1B681840704704030140014B18609A
:104C30007047C04604030140074A084B1A60084AFF
:104C4000002905D011680843106000221A607047DF
:104C5000116881431160F8E7837A0000A8000040E2
:104C60009C00004030B5802405000F4B0F4AE40043
:104C7000136025400E4B01290CD1002D04D019687A
:104C80000C4C21401960204019680843186000232B
:104C9000136030BD002D03D01968204321431960F3
:104CA000196881431960F2E7837A0000A800004088
:104CB00010000040FFFBFFFF044B054A05491A6046
:104CC000002208600A601A607047C046A8000040D1
:104CD000837A0000A4000040274B70B505000C004B
:104CE000984243D101212020FFF7A6FF2368626884
:104CF000DB07D2061343626C1343A2689206134388
:104D0000E268120613432269120513436269120412
:104D10001343E26912031343226AD2021343626A05
:104D200092021343A26A52021343E26A120213432D
:104D3000626B12011343A26BD2001343E26B920029
:104D40001343226C520013432B60A3696B60E36C26
:104D5000AB60A36CEB60236B2B61236D6B61636DA8
:104D6000AB61A36DEB6107232B6270BD034B9842CF
:104D7000BCD101214020B7E70005014000060140F9
:104D800000230122036043608360C36003614361C9
:104D90008361C261026243628362C36203634363ED
:104DA0008263C363036443648364C36403654365CC
:104DB00083657047F8B50C00050001210420FFF75A
:104DC0003BFF21681E48FBF785F9002106001D4BBB
:104DD00098422CD81C4B013819600200FF23000AAE
:104DE0001A401840AA606860E2790021012A03D0C5
:104DF000022A23D0002211006379A0795B00800091
:104E000003432079C9000343207A12014001034380
:104E10000B4313432B60E37BA27B5B0013436B626A
:104E200063892B61637BAB61237BEB61F8BD4F1C16
:104E300030000231FBF74EF93900C8E70122DAE70A
:104E4000006CDC02FFFF00009800004096239B01ED
:104E50000360002383808371C37103724381838164
:104E6000C3817047002110B5034BC15403491000A2
:104E700001F0DEFA012010BD4C1200003C71000070
:104E8000F0B50026234CA54404AB029003921E709B
:104E9000214AF3009B185D68002D21D02800FCF703
:104EA00077F81E493200040004A801F0A1FA04A812
:104EB000FCF76EF8029F0100FC3704A8BB6A984714
:104EC000BB6A0193002C18DC1549164A04A801F0AE
:104ED000B7FA04A8FCF75CF8019B010004A8984706
:104EE000802301365B009E42D2D100230120039A29
:104EF000137085239B009D44F0BD0094802C01DD40
:104F0000802300932800019B00999847009BED188F
:104F1000E41AD5E7ECFDFFFF5824002036710000AD
:104F200052710000FF010000F7B5009008000D006D
:104F30001600FCF72DF8124F01903800FCF728F806
:104F4000019B0024834214D20E49300001F070FA14
:104F50000120FEBD2A5D3B5D9A42F5D10A2C07D1A6
:104F60000121094B009A3000D154084901F060FA40
:104F700001343800FCF70CF88442EBD3E8E7C04674
:104F800058000020557100004C120000967100007E
:104F9000F0B585B002ABDD1D4B4B0400C358297042
:104FA0004A4F002B43D12A780D2A02D00A2A00D07A
:104FB0007FE02600FC36736A012128009847E359F8
:104FC000002B42DD0021424AE3189B181970414B27
:104FD000A018E518020040490290280001F008FAE4
:104FE0002800FBF7D5FF736A01009C462800E047C4
:104FF0000021384BE154394BE3560193002B27D164
:10500000334AA35C752B23D03549280001F010FAF0
:105010002800FBF7BDFF736A0100280098476B4624
:105020002B4A1B79A354019BE35105B0F0BDC35932
:10503000002BB8D129782B4BCA00D358002BB2D003
:10504000244A821898470028ADD03E232B7011E0E7
:105050001F4BE25C244BD100CB58002B24D02A00FC
:105060000299200098470023194AA3543E22E35195
:1050700002ABDA71174EA35D002B0BD0A5192800E7
:10508000FBF786FF2300FC3301005B6A280098478A
:105090000023A35502ABD81D0378002BC5D0FC34E8
:1050A000636A01219847C0E71049280001F0A0F980
:1050B000D9E7E359132BDDDC591CE1510449E3180E
:1050C0005B181A70D6E7C0462C100000481200008A
:1050D0003410000048100000947000004C120000D2
:1050E0009B700000581C002058240020D470000041
:1050F00001000020114A70B58B5883421DD19825BC
:105100000F4B104CAD00104E5C5104355E51FC3518
:105110005C51D924A4001851EA200C4C80001C508A
:105120000B4C04301C500B4CB538FF381C500A4C4B
:1051300004301C50FC38FF38885070BD301000001F
:1051400058240020654E0000F1700000294F000037
:1051500005710000814E000029710000F0B585B096
:1051600001900A9F002905D1012301600371019874
:1051700005B0F0BD8A1894464D1C002F47D0DA19AF
:10518000002702920E00012238001C78654523D2C8
:1051900002985F1C0394874202D85B7803933B001C
:1051A0006F1C002C0BD13270029A934225D201223F
:1051B00000E0350020002E00039C3D00E6E7029849
:1051C00001322C70D2B2834213D2FF2AF1D1327055
:1051D000AA1C3D001700EAE70224664515D290425A
:1051E0000FD2AC4632706346591A019B19601C718C
:1051F000BDE720003D000024EFE72E003D00012226
:10520000EFE76B1E30709C46EDE70224EBE70224CB
:105210009142E8D20E003C00F1E7F0B5002587B0DE
:105220008C460C9CA94201D0AB4204D101230560FD
:10523000037107B0F0BD002C5FD0624402922A00D7
:105240001C1905945C1C03941C780194002C06D155
:1052500004231A436346C91A01600271E9E7059CF9
:105260005D1C661B019C029D013C6D1AB44224D258
:10527000A54202D2022422432C000E0001331B1946
:10528000039D0493049B9D420AD1039B09191B199A
:10529000019CFF2CD6D0029CA1420AD30223D8E75E
:1052A0002F78002F01D104231A43377001350136BE
:1052B000E8E700240C700131C4E7B5420FD20223A5
:1052C0001A4300239D420CD14919B442C2D9029B12
:1052D0009942E3D26B461B790B700131BAE7350076
:1052E000EFE7039FFF5C0497002F01D104373A4397
:1052F0006F463F7CCF540133E4E722002100ABE747
:1053000080230C49DB00C258435810B59A420DD097
:105310004358094CC25C43580133234003D5074C22
:10532000013B234301334350D0B210BD012252420E
:10533000FAE7C04604040000FF03008000FCFFFF02
:1053400030B585B0C278011D02AD0B00040000929B
:105350002800FFF762FF029B012B07D1002322796F
:10536000E37062712371287905B030BD012B02D939
:10537000023BE370F7E701204042F5E730B5C37820
:1053800085B0011D02AD5A1C009304000B002800DB
:10539000FFF7E4FE029B002B03D02879E37005B0F1
:1053A00030BD01204042FAE743785AB2002A05DABC
:1053B000022202707F221340437070470422F8E7F4
:1053C00003780200022B06D14178823B0B43002078
:1053D0005370107070470120042BFBD17F2153784C
:1053E0000B40F4E70B7870B505000C00002B06D1DC
:1053F000E17820000431A8470023180070BD0800A0
:10540000FFF7DEFF01230028F7D161782378E278E7
:105410005B18A1785B18D31821795B42DBB20029B5
:1054200001D00132E2702100E278081B90420ADBD1
:10543000A11801320B712000E270FFF79FFF0028D6
:10544000D6D00223D9E7087901311B1ADBB2ECE789
:1054500007B56A46054B9170138000236946D370E7
:10546000137153719371FFF7BDFF07BD0241000037
:1054700007B5042A00D00222002900D101316B4671
:105480001A706A464E235370002391706946D37098
:10549000137153719371FFF7A5FF07BD8021074A70
:1054A000C90030B5455884580023A54204D043585C
:1054B00080581B1A00D55B18180030BD040400008A
:1054C000F8B505000C00FFF7E9FF0023984216D05D
:1054D0002800FFF715FF20702800FFF711FF60700C
:1054E0002800FFF70DFFA07006002800FFF708FF57
:1054F000E070043427003B1BB34202DB0123180099
:10550000F8BD2800FFF7FCFE38700137F3E7000014
:1055100070B50400002957D00B78022B34D1050058
:10552000FF35AB7D002B02D00120404270BD06004C
:10553000CA78B536FF360532300000F08DFE4B4B91
:10554000E25C0132D2B2002A1CD0E254E25CDB23DE
:105550005B00E254B2229200A35831000133A35001
:105560002300FC33586AFFF73DFF0123AB75404B26
:105570001B689847AF2302229B00E0503D4BE2544A
:105580000020D3E70122E0E7042BCDD1DE23CA7847
:10559000DB00C5180532280000F05EFE364BE25CE9
:1055A0000132D2B2002A0DD02900E254E25C334B22
:1055B000E254334AA3580133A350FC34606AFFF726
:1055C00011FFDDE70122EFE70500FF35AB7D002B82
:1055D00029D1B9239B00C6183000FFF75FFF0028D0
:1055E00021D02100B631FF313000FFF769FFDA2307
:1055F00002225B00E2541D4BE25C0132D2B2002A6F
:105600000FD0E254E25CDB235B00E254B222920052
:10561000A35821000133A3502300B531FF31FC33DF
:10562000A0E70122EDE7174BE1183033FF33E01814
:10563000FFF746FF002800D176E7DE230422DB00D7
:10564000E2540D4BE25C0132D2B2002A0CD0E2549B
:10565000E25C0A4BE2540A4AA3580133A350DE230A
:10566000DB00E118FC34A9E70122F0E7B7020000F3
:1056700068000020B6020000F3070000F2060000F8
:1056800004080000F1060000F0B504005B4EC7B04E
:105690003368984723006060FF339A7D012A1ED14A
:1056A000AF25AD006259801A2200FC32D1698842D0
:1056B00015D9534FE15D002900D197E0B32189004E
:1056C0006358506A013363502100B531FF31FFF751
:1056D00089FE336898476051E35D013BE355002143
:1056E0002000FFF715FF217A002914D02000E2687E
:1056F0006368FC309B1A026A052900D078E0934267
:1057000009D9217DA27C0131C9B2406AFFF7B0FE00
:105710000023E3602372002301930E25019B5D4368
:1057200065192B002933FF331B780293002B56D0C9
:105730002B002E00FC3300932E365B8EFF36327822
:105740001B021A432B003133FF3303931B781B06D4
:10575000134344D0009BDA8E1B8F1B0413436268F3
:1057600093423CD8812205AF52000021380000F05E
:105770007CFD52237B706B461B7A39003B712B00FA
:105780003233FF331B7820003B7000F0ADFC2B0060
:105790002A33FF331A78009BDB8D1B021A432B0040
:1057A0002D33FF331B7833351B0613436268FF35F7
:1057B0009B182B801B0C6B80009B32785B8E1B022E
:1057C0001A43039B1B781B061343002B07DD013B89
:1057D0001A0A337072701A0C1B0EB270F370019BB0
:1057E000013301930A2B98D147B0F0BD997576E744
:1057F000934200D88FE7A27C217D86E768000020D5
:10580000B6020000F8B5904E040033680D009847CA
:10581000E060207A002D13D1C0B200280AD0230006
:10582000A27C217DFC33022801D80131C9B2586A1B
:10583000FFF71EFE0023A3742374013323720FE0CD
:1058400005280DD8FAF73CFC030F12151A0323782C
:10585000002B06D000232900E3602000FFF798FB0F
:10586000F8BD0523EAE7E5740223E7E7257503237E
:10587000E4E70023657563740433DFE7627C531C3F
:10588000DBB2A21863749575627D9A42E8D1250057
:1058900000231235E36023722800FFF751FD002832
:1058A00006D02300FC33A27C217D586AFFF7E0FD7F
:1058B000E17CA37C627D5B18217D5B18D318237487
:1058C00023000132191B8A4209DA2800FFF76CFD18
:1058D000A27C022A09D0042A7ED00023AEE7987D5C
:1058E000217C013309182174ECE7E37C412B0BD0B8
:1058F0004E2B2BD02300FC33586A237C217D002BB8
:105900004CD0FFF7B5FDE8E72300FF339A7D012A6D
:1059100016D1B632FF32217DA25C914210D1AF2167
:105920000022890062509A75B9239B00E018FFF7A6
:10593000B5FD0028D1D000212000FFF7E9FDCCE71C
:10594000B5229200A3580133A350C6E72300FF33CA
:105950009A7D012A20D13D4D625D002A15D0B322E7
:105960009200A35821000133A3502300B531FC332A
:10597000FF31586AFFF736FD33689847AF239B0025
:10598000E050635D013B6355A7E79A75B42292002E
:10599000A3580133A350C7E7B622D2E7AE26B6001C
:1059A000A35D8B4203D11900FFF752FD95E7B122A9
:1059B0009200A7580133CB1ADB19A350FFF748FD1B
:1059C000B022237D9200A355A35829000133A35090
:1059D000200000F089FB80E7E37C412B09D04E2BAF
:1059E0000AD0237C217D002B1ED02300FC33586A73
:1059F00087E781221201A5E7154D635D002B0CD0CE
:105A0000144AA3580133A350DE23DB00E11823001E
:105A1000FC33586AFFF7E6FCB3E70F4AA35801339B
:105A2000A35082231B0181E70C4AA35C8B4200D167
:105A300053E78020000126580133CB1A9B192350CD
:105A4000A154074AC0E7C04668000020B602000023
:105A5000F2070000080800000C080000F40700002E
:105A6000FC070000F8B50B7804000D00022B39D1BB
:105A7000B9239B00C018FFF711FD2300FF339B7D66
:105A8000012B06D0002804D129002000FFF740FD9B
:105A900020E0EB78154E0433691CC0180A00B042B0
:105AA00019DC134820181578B926AC4667460568F6
:105AB000B6006519AF5505680E4E0135354003D562
:105AC0000D4E013D3543013501320560551AAB429B
:105AD000E9DC0120F8BD094AA3580133A350012095
